:020000040000FA
:100000000820002019020000210200002302000045
:100010002502000027020000290200000000000065
:100020000000000000000000000000002B020000A3
:100030002D020000000000002F020000310200002D
:1000400033020000330200003302000033020000DC
:1000500033020000330200003302000033020000CC
:1000600033020000330200003302000033020000BC
:1000700033020000330200003302000033020000AC
:10008000330200003302000033020000330200009C
:10009000330200003302000033020000330200008C
:1000A000330200003302000033020000330200007C
:1000B00033020000330200000000000000000000D6
:1000C000330200003302000033020000330200005C
:1000D000330200003302000033020000330200004C
:1000E0003302000033020000330200000000000071
:1000F0000000000033020000000000003302000096
:1001000000000000000000000000000000000000EF
:1001100000000000000000000000000000000000DF
:1001200000000000000000000000000000000000CF
:1001300000000000000000000000000000000000BF
:1001400000000000000000000000000000000000AF
:10015000000000000000000000000000000000009F
:10016000000000000000000000000000000000008F
:10017000000000000000000000000000000000007F
:10018000000000000000000000000000000000006F
:10019000000000000000000000000000000000005F
:1001A000000000000000000000000000000000004F
:1001B000000000000000000000000000000000003F
:1001C000000000000000000000000000000000002F
:1001D000000000000000000000000000000000001F
:1001E000000000000000000000000000000000000F
:1001F00000000000000000000000000000000000FF
:10020000DFF810D000F01AF8004800478B04000017
:10021000AFF30080082000200648804706480047CA
:10022000FEE7FEE7FEE7FEE7FEE7FEE7FEE7FEE7A6
:10023000FEE7FEE79102000001020000064C074DB8
:1002400006E0E06840F0010394E8070098471034A6
:10025000AC42F6D3FFF7D8FF580500007805000040
:100260000D2000F059B90D2000F03EB90E2000F02D
:1002700053B90E2000F038B910B50D2000F028F960
:100280000E2000F025F9BDE810400F2000F020B945
:1002900030B54FF080520023D2E94C10082906D126
:1002A000CC06C4F80C31C4F81031624C2360082924
:1002B00055D1614B1B68614C23605F4B1B1D1B6854
:1002C000241D23605C4B08331B68241D23605A4B9C
:1002D0000C331B68241D2360574B10331B68241DEF
:1002E0002360554B14331B68241D2360524B183375
:1002F0001B68524C203423604F4B1C331B68241D59
:1003000023604D4B20331B68241D23604A4B24334C
:100310001B68241D2360484B28331B68241D236061
:10032000454B2C331B68241D2360434B30331B6823
:10033000424C40342360404B34331B68241D2360FF
:100340003D4B38331B68241D23603B4B3C331B68FB
:10035000241D2360384B40331B68241D236008296B
:1003600004D1030002D1374C354B2360082904D156
:10037000030002D1344CFB232360082908D1030079
:1003800006D1324B92F858521C6865F303041C6086
:10039000082904D1030002D12D4C8B0123600829C8
:1003A00006D12C480168C90702D06FF00101016035
:1003B0002948016841F470010160BFF34F8FBFF31A
:1003C0006F8FD2E94C104FF01022082906D1042873
:1003D00004D9D2F80802174920310860D2F8000287
:1003E000002803DBD2F8040200281FDA012000F005
:1003F0009DF81221C2F8001218480368002BFCD0A7
:10040000C2F8041201680029FCD0002000F08EF828
:10041000BFF34F8F10487C380168114A01F4E06146
:1004200011430160BFF34F8F00BFFDE70E490D4838
:10043000086030BD380500400404001020C50040AD
:10044000488103008C56004018F50040E40E00403F
:10045000409602400004004088ED00E000E40140C6
:100460000400FA050090D0030000002002E008C854
:10047000121F08C1002AFAD170477047002001E01E
:1004800001C1121F002AFBD17047FFF7F5FE4FF4A0
:10049000FA74FFF7E8FEFFF7E9FE204600F008F8DF
:1004A000FFF7DEFEFFF7E5FE204600F001F8F0E77B
:1004B0002DE9F041040007D0044E4FF47A47751C33
:1004C0003846A847641EFAD1BDE8F0815005000007
:1004D00008B50090684600F011F8009A032100EB7F
:1004E0008200C0F8001708BD01B5684600F006F8A4
:1004F000009A01219140C0F80C1508BD016820291F
:1005000002D24FF0A040704701F01F010160014886
:10051000704700000003005001B56846FFF7EEFF8A
:10052000009A01219140C0F8081508BD03490860F0
:10053000034801680029FCD07047000004E5014031
:1005400000E4014000000000000000000000000086
:100550000338FDD870470000780500000000002037
:10056000040000006C0400007C0500000400002072
:0C057000042000007C0400000090D00378
:0400000500000201F4
:00000001FF
